{
  "contractName": "NFT",
  "abi": [
    {
      "inputs": [
        {
          "internalType": "address",
          "name": "trustedForwarder",
          "type": "address"
        }
      ],
      "stateMutability": "nonpayable",
      "type": "constructor"
    },
    {
      "anonymous": false,
      "inputs": [
        {
          "indexed": true,
          "internalType": "address",
          "name": "account",
          "type": "address"
        },
        {
          "indexed": true,
          "internalType": "address",
          "name": "operator",
          "type": "address"
        },
        {
          "indexed": false,
          "internalType": "bool",
          "name": "approved",
          "type": "bool"
        }
      ],
      "name": "ApprovalForAll",
      "type": "event"
    },
    {
      "anonymous": false,
      "inputs": [
        {
          "indexed": false,
          "internalType": "address",
          "name": "_address",
          "type": "address"
        },
        {
          "indexed": false,
          "internalType": "uint256",
          "name": "_tokenId",
          "type": "uint256"
        }
      ],
      "name": "MintToken",
      "type": "event"
    },
    {
      "anonymous": false,
      "inputs": [
        {
          "indexed": true,
          "internalType": "address",
          "name": "operator",
          "type": "address"
        },
        {
          "indexed": true,
          "internalType": "address",
          "name": "from",
          "type": "address"
        },
        {
          "indexed": true,
          "internalType": "address",
          "name": "to",
          "type": "address"
        },
        {
          "indexed": false,
          "internalType": "uint256[]",
          "name": "ids",
          "type": "uint256[]"
        },
        {
          "indexed": false,
          "internalType": "uint256[]",
          "name": "values",
          "type": "uint256[]"
        }
      ],
      "name": "TransferBatch",
      "type": "event"
    },
    {
      "anonymous": false,
      "inputs": [
        {
          "indexed": true,
          "internalType": "address",
          "name": "operator",
          "type": "address"
        },
        {
          "indexed": true,
          "internalType": "address",
          "name": "from",
          "type": "address"
        },
        {
          "indexed": true,
          "internalType": "address",
          "name": "to",
          "type": "address"
        },
        {
          "indexed": false,
          "internalType": "uint256",
          "name": "id",
          "type": "uint256"
        },
        {
          "indexed": false,
          "internalType": "uint256",
          "name": "value",
          "type": "uint256"
        }
      ],
      "name": "TransferSingle",
      "type": "event"
    },
    {
      "anonymous": false,
      "inputs": [
        {
          "indexed": false,
          "internalType": "string",
          "name": "value",
          "type": "string"
        },
        {
          "indexed": true,
          "internalType": "uint256",
          "name": "id",
          "type": "uint256"
        }
      ],
      "name": "URI",
      "type": "event"
    },
    {
      "inputs": [
        {
          "internalType": "address",
          "name": "account",
          "type": "address"
        },
        {
          "internalType": "uint256",
          "name": "id",
          "type": "uint256"
        }
      ],
      "name": "balanceOf",
      "outputs": [
        {
          "internalType": "uint256",
          "name": "",
          "type": "uint256"
        }
      ],
      "stateMutability": "view",
      "type": "function",
      "constant": true
    },
    {
      "inputs": [
        {
          "internalType": "address[]",
          "name": "accounts",
          "type": "address[]"
        },
        {
          "internalType": "uint256[]",
          "name": "ids",
          "type": "uint256[]"
        }
      ],
      "name": "balanceOfBatch",
      "outputs": [
        {
          "internalType": "uint256[]",
          "name": "",
          "type": "uint256[]"
        }
      ],
      "stateMutability": "view",
      "type": "function",
      "constant": true
    },
    {
      "inputs": [
        {
          "internalType": "address",
          "name": "account",
          "type": "address"
        },
        {
          "internalType": "address",
          "name": "operator",
          "type": "address"
        }
      ],
      "name": "isApprovedForAll",
      "outputs": [
        {
          "internalType": "bool",
          "name": "",
          "type": "bool"
        }
      ],
      "stateMutability": "view",
      "type": "function",
      "constant": true
    },
    {
      "inputs": [
        {
          "internalType": "address",
          "name": "forwarder",
          "type": "address"
        }
      ],
      "name": "isTrustedForwarder",
      "outputs": [
        {
          "internalType": "bool",
          "name": "",
          "type": "bool"
        }
      ],
      "stateMutability": "view",
      "type": "function",
      "constant": true
    },
    {
      "inputs": [],
      "name": "name",
      "outputs": [
        {
          "internalType": "string",
          "name": "",
          "type": "string"
        }
      ],
      "stateMutability": "view",
      "type": "function",
      "constant": true
    },
    {
      "inputs": [],
      "name": "owner",
      "outputs": [
        {
          "internalType": "address payable",
          "name": "",
          "type": "address"
        }
      ],
      "stateMutability": "view",
      "type": "function",
      "constant": true
    },
    {
      "inputs": [
        {
          "internalType": "address",
          "name": "from",
          "type": "address"
        },
        {
          "internalType": "address",
          "name": "to",
          "type": "address"
        },
        {
          "internalType": "uint256[]",
          "name": "ids",
          "type": "uint256[]"
        },
        {
          "internalType": "uint256[]",
          "name": "amounts",
          "type": "uint256[]"
        },
        {
          "internalType": "bytes",
          "name": "data",
          "type": "bytes"
        }
      ],
      "name": "safeBatchTransferFrom",
      "outputs": [],
      "stateMutability": "nonpayable",
      "type": "function"
    },
    {
      "inputs": [
        {
          "internalType": "address",
          "name": "from",
          "type": "address"
        },
        {
          "internalType": "address",
          "name": "to",
          "type": "address"
        },
        {
          "internalType": "uint256",
          "name": "id",
          "type": "uint256"
        },
        {
          "internalType": "uint256",
          "name": "amount",
          "type": "uint256"
        },
        {
          "internalType": "bytes",
          "name": "data",
          "type": "bytes"
        }
      ],
      "name": "safeTransferFrom",
      "outputs": [],
      "stateMutability": "nonpayable",
      "type": "function"
    },
    {
      "inputs": [
        {
          "internalType": "address",
          "name": "operator",
          "type": "address"
        },
        {
          "internalType": "bool",
          "name": "approved",
          "type": "bool"
        }
      ],
      "name": "setApprovalForAll",
      "outputs": [],
      "stateMutability": "nonpayable",
      "type": "function"
    },
    {
      "inputs": [
        {
          "internalType": "bytes4",
          "name": "interfaceId",
          "type": "bytes4"
        }
      ],
      "name": "supportsInterface",
      "outputs": [
        {
          "internalType": "bool",
          "name": "",
          "type": "bool"
        }
      ],
      "stateMutability": "view",
      "type": "function",
      "constant": true
    },
    {
      "inputs": [],
      "name": "getBalance",
      "outputs": [
        {
          "internalType": "uint256",
          "name": "amount",
          "type": "uint256"
        }
      ],
      "stateMutability": "view",
      "type": "function",
      "constant": true
    },
    {
      "inputs": [
        {
          "internalType": "uint256",
          "name": "tokenId",
          "type": "uint256"
        }
      ],
      "name": "uri",
      "outputs": [
        {
          "internalType": "string",
          "name": "",
          "type": "string"
        }
      ],
      "stateMutability": "view",
      "type": "function",
      "constant": true
    },
    {
      "inputs": [
        {
          "internalType": "string",
          "name": "metadataURI",
          "type": "string"
        },
        {
          "internalType": "uint256",
          "name": "_amount",
          "type": "uint256"
        }
      ],
      "name": "createProduct",
      "outputs": [
        {
          "internalType": "uint256",
          "name": "",
          "type": "uint256"
        }
      ],
      "stateMutability": "payable",
      "type": "function",
      "payable": true
    }
  ],
  "bytecode": "0x60806040523480156200001157600080fd5b50604051620030b0380380620030b083398181016040528101906200003791906200021a565b80604051806020016040528060008152506200005981620000e460201b60201c565b5080600360006101000a81548173ffffffffffffffffffffffffffffffffffffffff021916908373ffffffffffffffffffffffffffffffffffffffff1602179055505033600560006101000a81548173ffffffffffffffffffffffffffffffffffffffff021916908373ffffffffffffffffffffffffffffffffffffffff16021790555050620002b1565b8060029080519060200190620000fc92919062000100565b5050565b8280546200010e906200027b565b90600052602060002090601f0160209004810192826200013257600085556200017e565b82601f106200014d57805160ff19168380011785556200017e565b828001600101855582156200017e579182015b828111156200017d57825182559160200191906001019062000160565b5b5090506200018d919062000191565b5090565b5b80821115620001ac57600081600090555060010162000192565b5090565b600080fd5b600073ffffffffffffffffffffffffffffffffffffffff82169050919050565b6000620001e282620001b5565b9050919050565b620001f481620001d5565b81146200020057600080fd5b50565b6000815190506200021481620001e9565b92915050565b600060208284031215620002335762000232620001b0565b5b6000620002438482850162000203565b91505092915050565b7f4e487b7100000000000000000000000000000000000000000000000000000000600052602260045260246000fd5b600060028204905060018216806200029457607f821691505b60208210811415620002ab57620002aa6200024c565b5b50919050565b612def80620002c16000396000f3fe6080604052600436106100c15760003560e01c80634e1273f41161007f578063a22cb46511610059578063a22cb465146102a1578063e9300c6c146102ca578063e985e9c5146102fa578063f242432a14610337576100c1565b80634e1273f4146101fc578063572b6c05146102395780638da5cb5b14610276576100c1565b8062fdd58e146100c657806301ffc9a71461010357806306fdde03146101405780630e89341c1461016b57806312065fe0146101a85780632eb2c2d6146101d3575b600080fd5b3480156100d257600080fd5b506100ed60048036038101906100e891906119eb565b610360565b6040516100fa9190611a3a565b60405180910390f35b34801561010f57600080fd5b5061012a60048036038101906101259190611aad565b610429565b6040516101379190611af5565b60405180910390f35b34801561014c57600080fd5b5061015561050b565b6040516101629190611ba9565b60405180910390f35b34801561017757600080fd5b50610192600480360381019061018d9190611bcb565b610599565b60405161019f9190611ba9565b60405180910390f35b3480156101b457600080fd5b506101bd610641565b6040516101ca9190611a3a565b60405180910390f35b3480156101df57600080fd5b506101fa60048036038101906101f59190611df5565b610649565b005b34801561020857600080fd5b50610223600480360381019061021e9190611f87565b6106ea565b60405161023091906120bd565b60405180910390f35b34801561024557600080fd5b50610260600480360381019061025b91906120df565b610803565b60405161026d9190611af5565b60405180910390f35b34801561028257600080fd5b5061028b61085d565b604051610298919061212d565b60405180910390f35b3480156102ad57600080fd5b506102c860048036038101906102c39190612174565b610883565b005b6102e460048036038101906102df9190612255565b610a04565b6040516102f19190611a3a565b60405180910390f35b34801561030657600080fd5b50610321600480360381019061031c91906122b1565b610b05565b60405161032e9190611af5565b60405180910390f35b34801561034357600080fd5b5061035e600480360381019061035991906122f1565b610b99565b005b60008073ffffffffffffffffffffffffffffffffffffffff168373ffffffffffffffffffffffffffffffffffffffff1614156103d1576040517f08c379a00000000000000000000000000000000000000000000000000000000081526004016103c8906123fa565b60405180910390fd5b60008083815260200190815260200160002060008473ffffffffffffffffffffffffffffffffffffffff1673ffffffffffffffffffffffffffffffffffffffff16815260200190815260200160002054905092915050565b60007fd9b67a26000000000000000000000000000000000000000000000000000000007bffffffffffffffffffffffffffffffffffffffffffffffffffffffff1916827bffffffffffffffffffffffffffffffffffffffffffffffffffffffff191614806104f457507f0e89341c000000000000000000000000000000000000000000000000000000007bffffffffffffffffffffffffffffffffffffffffffffffffffffffff1916827bffffffffffffffffffffffffffffffffffffffffffffffffffffffff1916145b80610504575061050382610c3a565b5b9050919050565b6006805461051890612449565b80601f016020809104026020016040519081016040528092919081815260200182805461054490612449565b80156105915780601f1061056657610100808354040283529160200191610591565b820191906000526020600020905b81548152906001019060200180831161057457829003601f168201915b505050505081565b60606007600083815260200190815260200160002060020180546105bc90612449565b80601f01602080910402602001604051908101604052809291908181526020018280546105e890612449565b80156106355780601f1061060a57610100808354040283529160200191610635565b820191906000526020600020905b81548152906001019060200180831161061857829003601f168201915b50505050509050919050565b600047905090565b610651610ca4565b73ffffffffffffffffffffffffffffffffffffffff168573ffffffffffffffffffffffffffffffffffffffff161480610697575061069685610691610ca4565b610b05565b5b6106d6576040517f08c379a00000000000000000000000000000000000000000000000000000000081526004016106cd906124ed565b60405180910390fd5b6106e38585858585610cb3565b5050505050565b60608151835114610730576040517f08c379a00000000000000000000000000000000000000000000000000000000081526004016107279061257f565b60405180910390fd5b6000835167ffffffffffffffff81111561074d5761074c611bfd565b5b60405190808252806020026020018201604052801561077b5781602001602082028036833780820191505090505b50905060005b84518110156107f8576107c88582815181106107a05761079f61259f565b5b60200260200101518583815181106107bb576107ba61259f565b5b6020026020010151610360565b8282815181106107db576107da61259f565b5b602002602001018181525050806107f1906125fd565b9050610781565b508091505092915050565b6000600360009054906101000a900473ffffffffffffffffffffffffffffffffffffffff1673ffffffffffffffffffffffffffffffffffffffff168273ffffffffffffffffffffffffffffffffffffffff16149050919050565b600560009054906101000a900473ffffffffffffffffffffffffffffffffffffffff1681565b8173ffffffffffffffffffffffffffffffffffffffff166108a2610ca4565b73ffffffffffffffffffffffffffffffffffffffff1614156108f9576040517f08c379a00000000000000000000000000000000000000000000000000000000081526004016108f0906126b8565b60405180910390fd5b8060016000610906610ca4565b73ffffffffffffffffffffffffffffffffffffffff1673ffffffffffffffffffffffffffffffffffffffff16815260200190815260200160002060008473ffffffffffffffffffffffffffffffffffffffff1673ffffffffffffffffffffffffffffffffffffffff16815260200190815260200160002060006101000a81548160ff0219169083151502179055508173ffffffffffffffffffffffffffffffffffffffff166109b3610ca4565b73ffffffffffffffffffffffffffffffffffffffff167f17307eab39ab6107e8899845ad3d59bd9653f200f220920489ca2b5937696c31836040516109f89190611af5565b60405180910390a35050565b6000610a106004610fc7565b6000610a1c6004610fdd565b90506000839050610a45610a2e610ca4565b838360405180602001604052806000815250610feb565b60405180606001604052803373ffffffffffffffffffffffffffffffffffffffff168152602001838152602001868152506007600084815260200190815260200160002060008201518160000160006101000a81548173ffffffffffffffffffffffffffffffffffffffff021916908373ffffffffffffffffffffffffffffffffffffffff160217905550602082015181600101556040820151816002019080519060200190610af69291906118a0565b50905050819250505092915050565b6000600160008473ffffffffffffffffffffffffffffffffffffffff1673ffffffffffffffffffffffffffffffffffffffff16815260200190815260200160002060008373ffffffffffffffffffffffffffffffffffffffff1673ffffffffffffffffffffffffffffffffffffffff16815260200190815260200160002060009054906101000a900460ff16905092915050565b610ba1610ca4565b73ffffffffffffffffffffffffffffffffffffffff168573ffffffffffffffffffffffffffffffffffffffff161480610be75750610be685610be1610ca4565b610b05565b5b610c26576040517f08c379a0000000000000000000000000000000000000000000000000000000008152600401610c1d9061274a565b60405180910390fd5b610c338585858585611181565b5050505050565b60007f01ffc9a7000000000000000000000000000000000000000000000000000000007bffffffffffffffffffffffffffffffffffffffffffffffffffffffff1916827bffffffffffffffffffffffffffffffffffffffffffffffffffffffff1916149050919050565b6000610cae611403565b905090565b8151835114610cf7576040517f08c379a0000000000000000000000000000000000000000000000000000000008152600401610cee906127dc565b60405180910390fd5b600073ffffffffffffffffffffffffffffffffffffffff168473ffffffffffffffffffffffffffffffffffffffff161415610d67576040517f08c379a0000000000000000000000000000000000000000000000000000000008152600401610d5e9061286e565b60405180910390fd5b6000610d71610ca4565b9050610d81818787878787611435565b60005b8451811015610f32576000858281518110610da257610da161259f565b5b602002602001015190506000858381518110610dc157610dc061259f565b5b60200260200101519050600080600084815260200190815260200160002060008b73ffffffffffffffffffffffffffffffffffffffff1673ffffffffffffffffffffffffffffffffffffffff16815260200190815260200160002054905081811015610e62576040517f08c379a0000000000000000000000000000000000000000000000000000000008152600401610e5990612900565b60405180910390fd5b81810360008085815260200190815260200160002060008c73ffffffffffffffffffffffffffffffffffffffff1673ffffffffffffffffffffffffffffffffffffffff168152602001908152602001600020819055508160008085815260200190815260200160002060008b73ffffffffffffffffffffffffffffffffffffffff1673ffffffffffffffffffffffffffffffffffffffff1681526020019081526020016000206000828254610f179190612920565b9250508190555050505080610f2b906125fd565b9050610d84565b508473ffffffffffffffffffffffffffffffffffffffff168673ffffffffffffffffffffffffffffffffffffffff168273ffffffffffffffffffffffffffffffffffffffff167f4a39dc06d4c0dbc64b70af90fd698a233a518aa5d07e595d983b8c0526c8f7fb8787604051610fa9929190612976565b60405180910390a4610fbf81878787878761143d565b505050505050565b6001816000016000828254019250508190555050565b600081600001549050919050565b600073ffffffffffffffffffffffffffffffffffffffff168473ffffffffffffffffffffffffffffffffffffffff16141561105b576040517f08c379a000000000000000000000000000000000000000000000000000000000815260040161105290612a1f565b60405180910390fd5b6000611065610ca4565b90506110868160008761107788611624565b61108088611624565b87611435565b8260008086815260200190815260200160002060008773ffffffffffffffffffffffffffffffffffffffff1673ffffffffffffffffffffffffffffffffffffffff16815260200190815260200160002060008282546110e59190612920565b925050819055508473ffffffffffffffffffffffffffffffffffffffff16600073ffffffffffffffffffffffffffffffffffffffff168273ffffffffffffffffffffffffffffffffffffffff167fc3d58168c5ae7397731d063d5bbf3d657854427343f4c083240f7aacaa2d0f628787604051611163929190612a3f565b60405180910390a461117a8160008787878761169e565b5050505050565b600073ffffffffffffffffffffffffffffffffffffffff168473ffffffffffffffffffffffffffffffffffffffff1614156111f1576040517f08c379a00000000000000000000000000000000000000000000000000000000081526004016111e89061286e565b60405180910390fd5b60006111fb610ca4565b905061121b81878761120c88611624565b61121588611624565b87611435565b600080600086815260200190815260200160002060008873ffffffffffffffffffffffffffffffffffffffff1673ffffffffffffffffffffffffffffffffffffffff168152602001908152602001600020549050838110156112b2576040517f08c379a00000000000000000000000000000000000000000000000000000000081526004016112a990612900565b60405180910390fd5b83810360008087815260200190815260200160002060008973ffffffffffffffffffffffffffffffffffffffff1673ffffffffffffffffffffffffffffffffffffffff168152602001908152602001600020819055508360008087815260200190815260200160002060008873ffffffffffffffffffffffffffffffffffffffff1673ffffffffffffffffffffffffffffffffffffffff16815260200190815260200160002060008282546113679190612920565b925050819055508573ffffffffffffffffffffffffffffffffffffffff168773ffffffffffffffffffffffffffffffffffffffff168373ffffffffffffffffffffffffffffffffffffffff167fc3d58168c5ae7397731d063d5bbf3d657854427343f4c083240f7aacaa2d0f6288886040516113e4929190612a3f565b60405180910390a46113fa82888888888861169e565b50505050505050565b600061140e33610803565b1561142257601436033560601c9050611431565b61142a611885565b9050611432565b5b90565b505050505050565b61145c8473ffffffffffffffffffffffffffffffffffffffff1661188d565b1561161c578373ffffffffffffffffffffffffffffffffffffffff1663bc197c8187878686866040518663ffffffff1660e01b81526004016114a2959493929190612acc565b602060405180830381600087803b1580156114bc57600080fd5b505af19250505080156114ed57506040513d601f19601f820116820180604052508101906114ea9190612b49565b60015b611593576114f9612b83565b806308c379a01415611556575061150e612ba5565b806115195750611558565b806040517f08c379a000000000000000000000000000000000000000000000000000000000815260040161154d9190611ba9565b60405180910390fd5b505b6040517f08c379a000000000000000000000000000000000000000000000000000000000815260040161158a90612cad565b60405180910390fd5b63bc197c8160e01b7bffffffffffffffffffffffffffffffffffffffffffffffffffffffff1916817bffffffffffffffffffffffffffffffffffffffffffffffffffffffff19161461161a576040517f08c379a000000000000000000000000000000000000000000000000000000000815260040161161190612d3f565b60405180910390fd5b505b505050505050565b60606000600167ffffffffffffffff81111561164357611642611bfd565b5b6040519080825280602002602001820160405280156116715781602001602082028036833780820191505090505b50905082816000815181106116895761168861259f565b5b60200260200101818152505080915050919050565b6116bd8473ffffffffffffffffffffffffffffffffffffffff1661188d565b1561187d578373ffffffffffffffffffffffffffffffffffffffff1663f23a6e6187878686866040518663ffffffff1660e01b8152600401611703959493929190612d5f565b602060405180830381600087803b15801561171d57600080fd5b505af192505050801561174e57506040513d601f19601f8201168201806040525081019061174b9190612b49565b60015b6117f45761175a612b83565b806308c379a014156117b7575061176f612ba5565b8061177a57506117b9565b806040517f08c379a00000000000000000000000000000000000000000000000000000000081526004016117ae9190611ba9565b60405180910390fd5b505b6040517f08c379a00000000000000000000000000000000000000000000000000000000081526004016117eb90612cad565b60405180910390fd5b63f23a6e6160e01b7bffffffffffffffffffffffffffffffffffffffffffffffffffffffff1916817bffffffffffffffffffffffffffffffffffffffffffffffffffffffff19161461187b576040517f08c379a000000000000000000000000000000000000000000000000000000000815260040161187290612d3f565b60405180910390fd5b505b505050505050565b600033905090565b600080823b905060008111915050919050565b8280546118ac90612449565b90600052602060002090601f0160209004810192826118ce5760008555611915565b82601f106118e757805160ff1916838001178555611915565b82800160010185558215611915579182015b828111156119145782518255916020019190600101906118f9565b5b5090506119229190611926565b5090565b5b8082111561193f576000816000905550600101611927565b5090565b6000604051905090565b600080fd5b600080fd5b600073ffffffffffffffffffffffffffffffffffffffff82169050919050565b600061198282611957565b9050919050565b61199281611977565b811461199d57600080fd5b50565b6000813590506119af81611989565b92915050565b6000819050919050565b6119c8816119b5565b81146119d357600080fd5b50565b6000813590506119e5816119bf565b92915050565b60008060408385031215611a0257611a0161194d565b5b6000611a10858286016119a0565b9250506020611a21858286016119d6565b9150509250929050565b611a34816119b5565b82525050565b6000602082019050611a4f6000830184611a2b565b92915050565b60007fffffffff0000000000000000000000000000000000000000000000000000000082169050919050565b611a8a81611a55565b8114611a9557600080fd5b50565b600081359050611aa781611a81565b92915050565b600060208284031215611ac357611ac261194d565b5b6000611ad184828501611a98565b91505092915050565b60008115159050919050565b611aef81611ada565b82525050565b6000602082019050611b0a6000830184611ae6565b92915050565b600081519050919050565b600082825260208201905092915050565b60005b83811015611b4a578082015181840152602081019050611b2f565b83811115611b59576000848401525b50505050565b6000601f19601f8301169050919050565b6000611b7b82611b10565b611b858185611b1b565b9350611b95818560208601611b2c565b611b9e81611b5f565b840191505092915050565b60006020820190508181036000830152611bc38184611b70565b905092915050565b600060208284031215611be157611be061194d565b5b6000611bef848285016119d6565b91505092915050565b600080fd5b7f4e487b7100000000000000000000000000000000000000000000000000000000600052604160045260246000fd5b611c3582611b5f565b810181811067ffffffffffffffff82111715611c5457611c53611bfd565b5b80604052505050565b6000611c67611943565b9050611c738282611c2c565b919050565b600067ffffffffffffffff821115611c9357611c92611bfd565b5b602082029050602081019050919050565b600080fd5b6000611cbc611cb784611c78565b611c5d565b90508083825260208201905060208402830185811115611cdf57611cde611ca4565b5b835b81811015611d085780611cf488826119d6565b845260208401935050602081019050611ce1565b5050509392505050565b600082601f830112611d2757611d26611bf8565b5b8135611d37848260208601611ca9565b91505092915050565b600080fd5b600067ffffffffffffffff821115611d6057611d5f611bfd565b5b611d6982611b5f565b9050602081019050919050565b82818337600083830152505050565b6000611d98611d9384611d45565b611c5d565b905082815260208101848484011115611db457611db3611d40565b5b611dbf848285611d76565b509392505050565b600082601f830112611ddc57611ddb611bf8565b5b8135611dec848260208601611d85565b91505092915050565b600080600080600060a08688031215611e1157611e1061194d565b5b6000611e1f888289016119a0565b9550506020611e30888289016119a0565b945050604086013567ffffffffffffffff811115611e5157611e50611952565b5b611e5d88828901611d12565b935050606086013567ffffffffffffffff811115611e7e57611e7d611952565b5b611e8a88828901611d12565b925050608086013567ffffffffffffffff811115611eab57611eaa611952565b5b611eb788828901611dc7565b9150509295509295909350565b600067ffffffffffffffff821115611edf57611ede611bfd565b5b602082029050602081019050919050565b6000611f03611efe84611ec4565b611c5d565b90508083825260208201905060208402830185811115611f2657611f25611ca4565b5b835b81811015611f4f5780611f3b88826119a0565b845260208401935050602081019050611f28565b5050509392505050565b600082601f830112611f6e57611f6d611bf8565b5b8135611f7e848260208601611ef0565b91505092915050565b60008060408385031215611f9e57611f9d61194d565b5b600083013567ffffffffffffffff811115611fbc57611fbb611952565b5b611fc885828601611f59565b925050602083013567ffffffffffffffff811115611fe957611fe8611952565b5b611ff585828601611d12565b9150509250929050565b600081519050919050565b600082825260208201905092915050565b6000819050602082019050919050565b612034816119b5565b82525050565b6000612046838361202b565b60208301905092915050565b6000602082019050919050565b600061206a82611fff565b612074818561200a565b935061207f8361201b565b8060005b838110156120b0578151612097888261203a565b97506120a283612052565b925050600181019050612083565b5085935050505092915050565b600060208201905081810360008301526120d7818461205f565b905092915050565b6000602082840312156120f5576120f461194d565b5b6000612103848285016119a0565b91505092915050565b600061211782611957565b9050919050565b6121278161210c565b82525050565b6000602082019050612142600083018461211e565b92915050565b61215181611ada565b811461215c57600080fd5b50565b60008135905061216e81612148565b92915050565b6000806040838503121561218b5761218a61194d565b5b6000612199858286016119a0565b92505060206121aa8582860161215f565b9150509250929050565b600067ffffffffffffffff8211156121cf576121ce611bfd565b5b6121d882611b5f565b9050602081019050919050565b60006121f86121f3846121b4565b611c5d565b90508281526020810184848401111561221457612213611d40565b5b61221f848285611d76565b509392505050565b600082601f83011261223c5761223b611bf8565b5b813561224c8482602086016121e5565b91505092915050565b6000806040838503121561226c5761226b61194d565b5b600083013567ffffffffffffffff81111561228a57612289611952565b5b61229685828601612227565b92505060206122a7858286016119d6565b9150509250929050565b600080604083850312156122c8576122c761194d565b5b60006122d6858286016119a0565b92505060206122e7858286016119a0565b9150509250929050565b600080600080600060a0868803121561230d5761230c61194d565b5b600061231b888289016119a0565b955050602061232c888289016119a0565b945050604061233d888289016119d6565b935050606061234e888289016119d6565b925050608086013567ffffffffffffffff81111561236f5761236e611952565b5b61237b88828901611dc7565b9150509295509295909350565b7f455243313135353a2062616c616e636520717565727920666f7220746865207a60008201527f65726f2061646472657373000000000000000000000000000000000000000000602082015250565b60006123e4602b83611b1b565b91506123ef82612388565b604082019050919050565b60006020820190508181036000830152612413816123d7565b9050919050565b7f4e487b7100000000000000000000000000000000000000000000000000000000600052602260045260246000fd5b6000600282049050600182168061246157607f821691505b602082108114156124755761247461241a565b5b50919050565b7f455243313135353a207472616e736665722063616c6c6572206973206e6f742060008201527f6f776e6572206e6f7220617070726f7665640000000000000000000000000000602082015250565b60006124d7603283611b1b565b91506124e28261247b565b604082019050919050565b60006020820190508181036000830152612506816124ca565b9050919050565b7f455243313135353a206163636f756e747320616e6420696473206c656e67746860008201527f206d69736d617463680000000000000000000000000000000000000000000000602082015250565b6000612569602983611b1b565b91506125748261250d565b604082019050919050565b600060208201905081810360008301526125988161255c565b9050919050565b7f4e487b7100000000000000000000000000000000000000000000000000000000600052603260045260246000fd5b7f4e487b7100000000000000000000000000000000000000000000000000000000600052601160045260246000fd5b6000612608826119b5565b91507fffffffffffffffffffffffffffffffffffffffffffffffffffffffffffffffff82141561263b5761263a6125ce565b5b600182019050919050565b7f455243313135353a2073657474696e6720617070726f76616c2073746174757360008201527f20666f722073656c660000000000000000000000000000000000000000000000602082015250565b60006126a2602983611b1b565b91506126ad82612646565b604082019050919050565b600060208201905081810360008301526126d181612695565b9050919050565b7f455243313135353a2063616c6c6572206973206e6f74206f776e6572206e6f7260008201527f20617070726f7665640000000000000000000000000000000000000000000000602082015250565b6000612734602983611b1b565b915061273f826126d8565b604082019050919050565b6000602082019050818103600083015261276381612727565b9050919050565b7f455243313135353a2069647320616e6420616d6f756e7473206c656e6774682060008201527f6d69736d61746368000000000000000000000000000000000000000000000000602082015250565b60006127c6602883611b1b565b91506127d18261276a565b604082019050919050565b600060208201905081810360008301526127f5816127b9565b9050919050565b7f455243313135353a207472616e7366657220746f20746865207a65726f20616460008201527f6472657373000000000000000000000000000000000000000000000000000000602082015250565b6000612858602583611b1b565b9150612863826127fc565b604082019050919050565b600060208201905081810360008301526128878161284b565b9050919050565b7f455243313135353a20696e73756666696369656e742062616c616e636520666f60008201527f72207472616e7366657200000000000000000000000000000000000000000000602082015250565b60006128ea602a83611b1b565b91506128f58261288e565b604082019050919050565b60006020820190508181036000830152612919816128dd565b9050919050565b600061292b826119b5565b9150612936836119b5565b9250827fffffffffffffffffffffffffffffffffffffffffffffffffffffffffffffffff0382111561296b5761296a6125ce565b5b828201905092915050565b60006040820190508181036000830152612990818561205f565b905081810360208301526129a4818461205f565b90509392505050565b7f455243313135353a206d696e7420746f20746865207a65726f2061646472657360008201527f7300000000000000000000000000000000000000000000000000000000000000602082015250565b6000612a09602183611b1b565b9150612a14826129ad565b604082019050919050565b60006020820190508181036000830152612a38816129fc565b9050919050565b6000604082019050612a546000830185611a2b565b612a616020830184611a2b565b9392505050565b612a7181611977565b82525050565b600081519050919050565b600082825260208201905092915050565b6000612a9e82612a77565b612aa88185612a82565b9350612ab8818560208601611b2c565b612ac181611b5f565b840191505092915050565b600060a082019050612ae16000830188612a68565b612aee6020830187612a68565b8181036040830152612b00818661205f565b90508181036060830152612b14818561205f565b90508181036080830152612b288184612a93565b90509695505050505050565b600081519050612b4381611a81565b92915050565b600060208284031215612b5f57612b5e61194d565b5b6000612b6d84828501612b34565b91505092915050565b60008160e01c9050919050565b600060033d1115612ba25760046000803e612b9f600051612b76565b90505b90565b600060443d1015612bb557612c38565b612bbd611943565b60043d036004823e80513d602482011167ffffffffffffffff82111715612be5575050612c38565b808201805167ffffffffffffffff811115612c035750505050612c38565b80602083010160043d038501811115612c20575050505050612c38565b612c2f82602001850186611c2c565b82955050505050505b90565b7f455243313135353a207472616e7366657220746f206e6f6e204552433131353560008201527f526563656976657220696d706c656d656e746572000000000000000000000000602082015250565b6000612c97603483611b1b565b9150612ca282612c3b565b604082019050919050565b60006020820190508181036000830152612cc681612c8a565b9050919050565b7f455243313135353a204552433131353552656365697665722072656a6563746560008201527f6420746f6b656e73000000000000000000000000000000000000000000000000602082015250565b6000612d29602883611b1b565b9150612d3482612ccd565b604082019050919050565b60006020820190508181036000830152612d5881612d1c565b9050919050565b600060a082019050612d746000830188612a68565b612d816020830187612a68565b612d8e6040830186611a2b565b612d9b6060830185611a2b565b8181036080830152612dad8184612a93565b9050969550505050505056fea26469706673582212201acc71c207ed59301f31a57b658884453364d09cef92356db915e062443bd67664736f6c63430008090033",
  "immutableReferences": {},
  "source": "// SPDX-License-Identifier: GPL-3.0\r\npragma solidity ^0.8.7;\r\nimport \"@openzeppelin/contracts/token/ERC1155/ERC1155.sol\";\r\nimport \"@openzeppelin/contracts/access/Ownable.sol\";\r\nimport \"@openzeppelin/contracts/utils/Counters.sol\";\r\nimport \"@openzeppelin/contracts/utils/math/SafeMath.sol\";\r\nimport \"@openzeppelin/contracts/metatx/ERC2771Context.sol\";\r\n\r\ncontract NFT is ERC1155, ERC2771Context {\r\n    \r\n    using Counters for Counters.Counter;\r\n    Counters.Counter private _tokenId;\r\n    address payable public owner;\r\n\r\n     // Contract name\r\n    string public name;\r\n    \r\n    //defining\r\n    event MintToken(address _address, uint256 _tokenId);\r\n    struct Stock {\r\n        address _nftOwner;\r\n        uint256 _nftId;\r\n        string _nftUri;\r\n    }\r\n    \r\n    mapping( uint256 => Stock) StockCollection;\r\n    \r\n    //constructor\r\n     constructor(address trustedForwarder) ERC1155('') ERC2771Context(trustedForwarder){\r\n        owner = payable(msg.sender);\r\n    }\r\n\r\n    function _msgSender() internal override(Context, ERC2771Context)\r\n      view returns (address) {\r\n       return ERC2771Context._msgSender();\r\n    }\r\n\r\n     function _msgData() internal override(Context, ERC2771Context)\r\n      view returns (bytes memory) {\r\n       return ERC2771Context._msgData();\r\n    }\r\n\r\n    \r\n    // check the ether balance of the smart contract\r\n    function getBalance() view public returns(uint256 amount){\r\n        return address(this).balance;\r\n    }\r\n    \r\n    // return the uri based on the token_id\r\n    function uri(uint256 tokenId) public view override returns (string memory) {\r\n        return StockCollection[tokenId]._nftUri;\r\n    }\r\n\r\n    \r\n    // mint the nft token\r\n    function createProduct(string memory metadataURI, uint256 _amount) public payable returns (uint256){\r\n        _tokenId.increment();\r\n        uint256 _newTokenId = _tokenId.current();\r\n        uint256 amount = _amount;\r\n        //address openSeaProvider = _msgSender();\r\n        _mint(_msgSender(),_newTokenId, amount, \"\");\r\n        StockCollection[_newTokenId] = Stock(msg.sender, _newTokenId, metadataURI);\r\n        return _newTokenId;\r\n\r\n        }\r\n}\r\n\r\n",
  "sourcePath": "C:\\Users\\Administrator\\Desktop\\Physics\\Solidity\\web3_interact\\nfthack-2022\\truffle\\contracts\\NFT.sol",
  "compiler": {
    "name": "solc",
    "version": "0.8.9+commit.e5eed63a.Emscripten.clang"
  },
  "schemaVersion": "3.4.3",
  "updatedAt": "2022-01-16T14:26:06.692Z",
  "networkType": "ethereum",
  "devdoc": {
    "kind": "dev",
    "methods": {
      "balanceOf(address,uint256)": {
        "details": "See {IERC1155-balanceOf}. Requirements: - `account` cannot be the zero address."
      },
      "balanceOfBatch(address[],uint256[])": {
        "details": "See {IERC1155-balanceOfBatch}. Requirements: - `accounts` and `ids` must have the same length."
      },
      "isApprovedForAll(address,address)": {
        "details": "See {IERC1155-isApprovedForAll}."
      },
      "safeBatchTransferFrom(address,address,uint256[],uint256[],bytes)": {
        "details": "See {IERC1155-safeBatchTransferFrom}."
      },
      "safeTransferFrom(address,address,uint256,uint256,bytes)": {
        "details": "See {IERC1155-safeTransferFrom}."
      },
      "setApprovalForAll(address,bool)": {
        "details": "See {IERC1155-setApprovalForAll}."
      },
      "supportsInterface(bytes4)": {
        "details": "See {IERC165-supportsInterface}."
      }
    },
    "version": 1
  },
  "userdoc": {
    "kind": "user",
    "methods": {},
    "version": 1
  }
}