{
  "contractName": "NFT",
  "abi": [
    {
      "inputs": [],
      "stateMutability": "nonpayable",
      "type": "constructor"
    },
    {
      "anonymous": false,
      "inputs": [
        {
          "indexed": true,
          "internalType": "address",
          "name": "account",
          "type": "address"
        },
        {
          "indexed": true,
          "internalType": "address",
          "name": "operator",
          "type": "address"
        },
        {
          "indexed": false,
          "internalType": "bool",
          "name": "approved",
          "type": "bool"
        }
      ],
      "name": "ApprovalForAll",
      "type": "event"
    },
    {
      "anonymous": false,
      "inputs": [
        {
          "indexed": false,
          "internalType": "address",
          "name": "_address",
          "type": "address"
        },
        {
          "indexed": false,
          "internalType": "uint256",
          "name": "_tokenId",
          "type": "uint256"
        }
      ],
      "name": "MintToken",
      "type": "event"
    },
    {
      "anonymous": false,
      "inputs": [
        {
          "indexed": true,
          "internalType": "address",
          "name": "operator",
          "type": "address"
        },
        {
          "indexed": true,
          "internalType": "address",
          "name": "from",
          "type": "address"
        },
        {
          "indexed": true,
          "internalType": "address",
          "name": "to",
          "type": "address"
        },
        {
          "indexed": false,
          "internalType": "uint256[]",
          "name": "ids",
          "type": "uint256[]"
        },
        {
          "indexed": false,
          "internalType": "uint256[]",
          "name": "values",
          "type": "uint256[]"
        }
      ],
      "name": "TransferBatch",
      "type": "event"
    },
    {
      "anonymous": false,
      "inputs": [
        {
          "indexed": true,
          "internalType": "address",
          "name": "operator",
          "type": "address"
        },
        {
          "indexed": true,
          "internalType": "address",
          "name": "from",
          "type": "address"
        },
        {
          "indexed": true,
          "internalType": "address",
          "name": "to",
          "type": "address"
        },
        {
          "indexed": false,
          "internalType": "uint256",
          "name": "id",
          "type": "uint256"
        },
        {
          "indexed": false,
          "internalType": "uint256",
          "name": "value",
          "type": "uint256"
        }
      ],
      "name": "TransferSingle",
      "type": "event"
    },
    {
      "anonymous": false,
      "inputs": [
        {
          "indexed": false,
          "internalType": "string",
          "name": "value",
          "type": "string"
        },
        {
          "indexed": true,
          "internalType": "uint256",
          "name": "id",
          "type": "uint256"
        }
      ],
      "name": "URI",
      "type": "event"
    },
    {
      "inputs": [
        {
          "internalType": "address",
          "name": "account",
          "type": "address"
        },
        {
          "internalType": "uint256",
          "name": "id",
          "type": "uint256"
        }
      ],
      "name": "balanceOf",
      "outputs": [
        {
          "internalType": "uint256",
          "name": "",
          "type": "uint256"
        }
      ],
      "stateMutability": "view",
      "type": "function",
      "constant": true
    },
    {
      "inputs": [
        {
          "internalType": "address[]",
          "name": "accounts",
          "type": "address[]"
        },
        {
          "internalType": "uint256[]",
          "name": "ids",
          "type": "uint256[]"
        }
      ],
      "name": "balanceOfBatch",
      "outputs": [
        {
          "internalType": "uint256[]",
          "name": "",
          "type": "uint256[]"
        }
      ],
      "stateMutability": "view",
      "type": "function",
      "constant": true
    },
    {
      "inputs": [],
      "name": "biconomyTruster",
      "outputs": [
        {
          "internalType": "address",
          "name": "",
          "type": "address"
        }
      ],
      "stateMutability": "view",
      "type": "function",
      "constant": true
    },
    {
      "inputs": [
        {
          "internalType": "address",
          "name": "account",
          "type": "address"
        },
        {
          "internalType": "address",
          "name": "operator",
          "type": "address"
        }
      ],
      "name": "isApprovedForAll",
      "outputs": [
        {
          "internalType": "bool",
          "name": "",
          "type": "bool"
        }
      ],
      "stateMutability": "view",
      "type": "function",
      "constant": true
    },
    {
      "inputs": [
        {
          "internalType": "address",
          "name": "forwarder",
          "type": "address"
        }
      ],
      "name": "isTrustedForwarder",
      "outputs": [
        {
          "internalType": "bool",
          "name": "",
          "type": "bool"
        }
      ],
      "stateMutability": "view",
      "type": "function",
      "constant": true
    },
    {
      "inputs": [],
      "name": "name",
      "outputs": [
        {
          "internalType": "string",
          "name": "",
          "type": "string"
        }
      ],
      "stateMutability": "view",
      "type": "function",
      "constant": true
    },
    {
      "inputs": [],
      "name": "owner",
      "outputs": [
        {
          "internalType": "address payable",
          "name": "",
          "type": "address"
        }
      ],
      "stateMutability": "view",
      "type": "function",
      "constant": true
    },
    {
      "inputs": [
        {
          "internalType": "address",
          "name": "from",
          "type": "address"
        },
        {
          "internalType": "address",
          "name": "to",
          "type": "address"
        },
        {
          "internalType": "uint256[]",
          "name": "ids",
          "type": "uint256[]"
        },
        {
          "internalType": "uint256[]",
          "name": "amounts",
          "type": "uint256[]"
        },
        {
          "internalType": "bytes",
          "name": "data",
          "type": "bytes"
        }
      ],
      "name": "safeBatchTransferFrom",
      "outputs": [],
      "stateMutability": "nonpayable",
      "type": "function"
    },
    {
      "inputs": [
        {
          "internalType": "address",
          "name": "from",
          "type": "address"
        },
        {
          "internalType": "address",
          "name": "to",
          "type": "address"
        },
        {
          "internalType": "uint256",
          "name": "id",
          "type": "uint256"
        },
        {
          "internalType": "uint256",
          "name": "amount",
          "type": "uint256"
        },
        {
          "internalType": "bytes",
          "name": "data",
          "type": "bytes"
        }
      ],
      "name": "safeTransferFrom",
      "outputs": [],
      "stateMutability": "nonpayable",
      "type": "function"
    },
    {
      "inputs": [
        {
          "internalType": "address",
          "name": "operator",
          "type": "address"
        },
        {
          "internalType": "bool",
          "name": "approved",
          "type": "bool"
        }
      ],
      "name": "setApprovalForAll",
      "outputs": [],
      "stateMutability": "nonpayable",
      "type": "function"
    },
    {
      "inputs": [
        {
          "internalType": "bytes4",
          "name": "interfaceId",
          "type": "bytes4"
        }
      ],
      "name": "supportsInterface",
      "outputs": [
        {
          "internalType": "bool",
          "name": "",
          "type": "bool"
        }
      ],
      "stateMutability": "view",
      "type": "function",
      "constant": true
    },
    {
      "inputs": [],
      "name": "trustedForwarder",
      "outputs": [
        {
          "internalType": "address",
          "name": "",
          "type": "address"
        }
      ],
      "stateMutability": "view",
      "type": "function",
      "constant": true
    },
    {
      "inputs": [],
      "name": "versionRecipient",
      "outputs": [
        {
          "internalType": "string",
          "name": "",
          "type": "string"
        }
      ],
      "stateMutability": "view",
      "type": "function",
      "constant": true
    },
    {
      "inputs": [],
      "name": "getBalance",
      "outputs": [
        {
          "internalType": "uint256",
          "name": "amount",
          "type": "uint256"
        }
      ],
      "stateMutability": "view",
      "type": "function",
      "constant": true
    },
    {
      "inputs": [
        {
          "internalType": "uint256",
          "name": "tokenId",
          "type": "uint256"
        }
      ],
      "name": "uri",
      "outputs": [
        {
          "internalType": "string",
          "name": "",
          "type": "string"
        }
      ],
      "stateMutability": "view",
      "type": "function",
      "constant": true
    },
    {
      "inputs": [
        {
          "internalType": "string",
          "name": "metadataURI",
          "type": "string"
        },
        {
          "internalType": "uint256",
          "name": "_amount",
          "type": "uint256"
        }
      ],
      "name": "createProduct",
      "outputs": [
        {
          "internalType": "uint256",
          "name": "",
          "type": "uint256"
        }
      ],
      "stateMutability": "payable",
      "type": "function",
      "payable": true
    }
  ],
  "bytecode": "0x60806040523480156200001157600080fd5b50604051806020016040528060008152506200003381620000a060201b60201c565b5033600560006101000a81548173ffffffffffffffffffffffffffffffffffffffff021916908373ffffffffffffffffffffffffffffffffffffffff1602179055506200009a7384a0856b038eaad1cc7e297cf34a7e72685a8693620000bc60201b60201c565b62000215565b8060029080519060200190620000b892919062000100565b5050565b80600360006101000a81548173ffffffffffffffffffffffffffffffffffffffff021916908373ffffffffffffffffffffffffffffffffffffffff16021790555050565b8280546200010e90620001df565b90600052602060002090601f0160209004810192826200013257600085556200017e565b82601f106200014d57805160ff19168380011785556200017e565b828001600101855582156200017e579182015b828111156200017d57825182559160200191906001019062000160565b5b5090506200018d919062000191565b5090565b5b80821115620001ac57600081600090555060010162000192565b5090565b7f4e487b7100000000000000000000000000000000000000000000000000000000600052602260045260246000fd5b60006002820490506001821680620001f857607f821691505b602082108114156200020f576200020e620001b0565b5b50919050565b612f3880620002256000396000f3fe6080604052600436106100f25760003560e01c8063572b6c051161008a578063e9300c6c11610059578063e9300c6c14610351578063e985e9c514610381578063f242432a146103be578063fcfd0ba4146103e7576100f2565b8063572b6c05146102955780637da0a877146102d25780638da5cb5b146102fd578063a22cb46514610328576100f2565b806312065fe0116100c657806312065fe0146101d95780632eb2c2d614610204578063486ff0cd1461022d5780634e1273f414610258576100f2565b8062fdd58e146100f757806301ffc9a71461013457806306fdde03146101715780630e89341c1461019c575b600080fd5b34801561010357600080fd5b5061011e60048036038101906101199190611b19565b610412565b60405161012b9190611b68565b60405180910390f35b34801561014057600080fd5b5061015b60048036038101906101569190611bdb565b6104db565b6040516101689190611c23565b60405180910390f35b34801561017d57600080fd5b506101866105bd565b6040516101939190611cd7565b60405180910390f35b3480156101a857600080fd5b506101c360048036038101906101be9190611cf9565b61064b565b6040516101d09190611cd7565b60405180910390f35b3480156101e557600080fd5b506101ee6106f3565b6040516101fb9190611b68565b60405180910390f35b34801561021057600080fd5b5061022b60048036038101906102269190611f23565b6106fb565b005b34801561023957600080fd5b5061024261079c565b60405161024f9190611cd7565b60405180910390f35b34801561026457600080fd5b5061027f600480360381019061027a91906120b5565b6107d9565b60405161028c91906121eb565b60405180910390f35b3480156102a157600080fd5b506102bc60048036038101906102b7919061220d565b6108f2565b6040516102c99190611c23565b60405180910390f35b3480156102de57600080fd5b506102e761094c565b6040516102f49190612249565b60405180910390f35b34801561030957600080fd5b50610312610976565b60405161031f9190612285565b60405180910390f35b34801561033457600080fd5b5061034f600480360381019061034a91906122cc565b61099c565b005b61036b600480360381019061036691906123ad565b610b1d565b6040516103789190611b68565b60405180910390f35b34801561038d57600080fd5b506103a860048036038101906103a39190612409565b610c1e565b6040516103b59190611c23565b60405180910390f35b3480156103ca57600080fd5b506103e560048036038101906103e09190612449565b610cb2565b005b3480156103f357600080fd5b506103fc610d53565b6040516104099190612249565b60405180910390f35b60008073ffffffffffffffffffffffffffffffffffffffff168373ffffffffffffffffffffffffffffffffffffffff161415610483576040517f08c379a000000000000000000000000000000000000000000000000000000000815260040161047a90612552565b60405180910390fd5b60008083815260200190815260200160002060008473ffffffffffffffffffffffffffffffffffffffff1673ffffffffffffffffffffffffffffffffffffffff16815260200190815260200160002054905092915050565b60007fd9b67a26000000000000000000000000000000000000000000000000000000007bffffffffffffffffffffffffffffffffffffffffffffffffffffffff1916827bffffffffffffffffffffffffffffffffffffffffffffffffffffffff191614806105a657507f0e89341c000000000000000000000000000000000000000000000000000000007bffffffffffffffffffffffffffffffffffffffffffffffffffffffff1916827bffffffffffffffffffffffffffffffffffffffffffffffffffffffff1916145b806105b657506105b582610d6b565b5b9050919050565b600680546105ca906125a1565b80601f01602080910402602001604051908101604052809291908181526020018280546105f6906125a1565b80156106435780601f1061061857610100808354040283529160200191610643565b820191906000526020600020905b81548152906001019060200180831161062657829003601f168201915b505050505081565b606060076000838152602001908152602001600020600201805461066e906125a1565b80601f016020809104026020016040519081016040528092919081815260200182805461069a906125a1565b80156106e75780601f106106bc576101008083540402835291602001916106e7565b820191906000526020600020905b8154815290600101906020018083116106ca57829003601f168201915b50505050509050919050565b600047905090565b610703610dd5565b73ffffffffffffffffffffffffffffffffffffffff168573ffffffffffffffffffffffffffffffffffffffff161480610749575061074885610743610dd5565b610c1e565b5b610788576040517f08c379a000000000000000000000000000000000000000000000000000000000815260040161077f90612645565b60405180910390fd5b6107958585858585610de4565b5050505050565b60606040518060400160405280600181526020017f3100000000000000000000000000000000000000000000000000000000000000815250905090565b6060815183511461081f576040517f08c379a0000000000000000000000000000000000000000000000000000000008152600401610816906126d7565b60405180910390fd5b6000835167ffffffffffffffff81111561083c5761083b611d2b565b5b60405190808252806020026020018201604052801561086a5781602001602082028036833780820191505090505b50905060005b84518110156108e7576108b785828151811061088f5761088e6126f7565b5b60200260200101518583815181106108aa576108a96126f7565b5b6020026020010151610412565b8282815181106108ca576108c96126f7565b5b602002602001018181525050806108e090612755565b9050610870565b508091505092915050565b6000600360009054906101000a900473ffffffffffffffffffffffffffffffffffffffff1673ffffffffffffffffffffffffffffffffffffffff168273ffffffffffffffffffffffffffffffffffffffff16149050919050565b6000600360009054906101000a900473ffffffffffffffffffffffffffffffffffffffff16905090565b600560009054906101000a900473ffffffffffffffffffffffffffffffffffffffff1681565b8173ffffffffffffffffffffffffffffffffffffffff166109bb610dd5565b73ffffffffffffffffffffffffffffffffffffffff161415610a12576040517f08c379a0000000000000000000000000000000000000000000000000000000008152600401610a0990612810565b60405180910390fd5b8060016000610a1f610dd5565b73ffffffffffffffffffffffffffffffffffffffff1673ffffffffffffffffffffffffffffffffffffffff16815260200190815260200160002060008473ffffffffffffffffffffffffffffffffffffffff1673ffffffffffffffffffffffffffffffffffffffff16815260200190815260200160002060006101000a81548160ff0219169083151502179055508173ffffffffffffffffffffffffffffffffffffffff16610acc610dd5565b73ffffffffffffffffffffffffffffffffffffffff167f17307eab39ab6107e8899845ad3d59bd9653f200f220920489ca2b5937696c3183604051610b119190611c23565b60405180910390a35050565b6000610b2960046110f8565b6000610b35600461110e565b90506000839050610b5e610b47610dd5565b83836040518060200160405280600081525061111c565b60405180606001604052803373ffffffffffffffffffffffffffffffffffffffff168152602001838152602001868152506007600084815260200190815260200160002060008201518160000160006101000a81548173ffffffffffffffffffffffffffffffffffffffff021916908373ffffffffffffffffffffffffffffffffffffffff160217905550602082015181600101556040820151816002019080519060200190610c0f9291906119ce565b50905050819250505092915050565b6000600160008473ffffffffffffffffffffffffffffffffffffffff1673ffffffffffffffffffffffffffffffffffffffff16815260200190815260200160002060008373ffffffffffffffffffffffffffffffffffffffff1673ffffffffffffffffffffffffffffffffffffffff16815260200190815260200160002060009054906101000a900460ff16905092915050565b610cba610dd5565b73ffffffffffffffffffffffffffffffffffffffff168573ffffffffffffffffffffffffffffffffffffffff161480610d005750610cff85610cfa610dd5565b610c1e565b5b610d3f576040517f08c379a0000000000000000000000000000000000000000000000000000000008152600401610d36906128a2565b60405180910390fd5b610d4c85858585856112b2565b5050505050565b7384a0856b038eaad1cc7e297cf34a7e72685a869381565b60007f01ffc9a7000000000000000000000000000000000000000000000000000000007bffffffffffffffffffffffffffffffffffffffffffffffffffffffff1916827bffffffffffffffffffffffffffffffffffffffffffffffffffffffff1916149050919050565b6000610ddf611534565b905090565b8151835114610e28576040517f08c379a0000000000000000000000000000000000000000000000000000000008152600401610e1f90612934565b60405180910390fd5b600073ffffffffffffffffffffffffffffffffffffffff168473ffffffffffffffffffffffffffffffffffffffff161415610e98576040517f08c379a0000000000000000000000000000000000000000000000000000000008152600401610e8f906129c6565b60405180910390fd5b6000610ea2610dd5565b9050610eb281878787878761156b565b60005b8451811015611063576000858281518110610ed357610ed26126f7565b5b602002602001015190506000858381518110610ef257610ef16126f7565b5b60200260200101519050600080600084815260200190815260200160002060008b73ffffffffffffffffffffffffffffffffffffffff1673ffffffffffffffffffffffffffffffffffffffff16815260200190815260200160002054905081811015610f93576040517f08c379a0000000000000000000000000000000000000000000000000000000008152600401610f8a90612a58565b60405180910390fd5b81810360008085815260200190815260200160002060008c73ffffffffffffffffffffffffffffffffffffffff1673ffffffffffffffffffffffffffffffffffffffff168152602001908152602001600020819055508160008085815260200190815260200160002060008b73ffffffffffffffffffffffffffffffffffffffff1673ffffffffffffffffffffffffffffffffffffffff16815260200190815260200160002060008282546110489190612a78565b925050819055505050508061105c90612755565b9050610eb5565b508473ffffffffffffffffffffffffffffffffffffffff168673ffffffffffffffffffffffffffffffffffffffff168273ffffffffffffffffffffffffffffffffffffffff167f4a39dc06d4c0dbc64b70af90fd698a233a518aa5d07e595d983b8c0526c8f7fb87876040516110da929190612ace565b60405180910390a46110f0818787878787611573565b505050505050565b6001816000016000828254019250508190555050565b600081600001549050919050565b600073ffffffffffffffffffffffffffffffffffffffff168473ffffffffffffffffffffffffffffffffffffffff16141561118c576040517f08c379a000000000000000000000000000000000000000000000000000000000815260040161118390612b77565b60405180910390fd5b6000611196610dd5565b90506111b7816000876111a88861175a565b6111b18861175a565b8761156b565b8260008086815260200190815260200160002060008773ffffffffffffffffffffffffffffffffffffffff1673ffffffffffffffffffffffffffffffffffffffff16815260200190815260200160002060008282546112169190612a78565b925050819055508473ffffffffffffffffffffffffffffffffffffffff16600073ffffffffffffffffffffffffffffffffffffffff168273ffffffffffffffffffffffffffffffffffffffff167fc3d58168c5ae7397731d063d5bbf3d657854427343f4c083240f7aacaa2d0f628787604051611294929190612b97565b60405180910390a46112ab816000878787876117d4565b5050505050565b600073ffffffffffffffffffffffffffffffffffffffff168473ffffffffffffffffffffffffffffffffffffffff161415611322576040517f08c379a0000000000000000000000000000000000000000000000000000000008152600401611319906129c6565b60405180910390fd5b600061132c610dd5565b905061134c81878761133d8861175a565b6113468861175a565b8761156b565b600080600086815260200190815260200160002060008873ffffffffffffffffffffffffffffffffffffffff1673ffffffffffffffffffffffffffffffffffffffff168152602001908152602001600020549050838110156113e3576040517f08c379a00000000000000000000000000000000000000000000000000000000081526004016113da90612a58565b60405180910390fd5b83810360008087815260200190815260200160002060008973ffffffffffffffffffffffffffffffffffffffff1673ffffffffffffffffffffffffffffffffffffffff168152602001908152602001600020819055508360008087815260200190815260200160002060008873ffffffffffffffffffffffffffffffffffffffff1673ffffffffffffffffffffffffffffffffffffffff16815260200190815260200160002060008282546114989190612a78565b925050819055508573ffffffffffffffffffffffffffffffffffffffff168773ffffffffffffffffffffffffffffffffffffffff168373ffffffffffffffffffffffffffffffffffffffff167fc3d58168c5ae7397731d063d5bbf3d657854427343f4c083240f7aacaa2d0f628888604051611515929190612b97565b60405180910390a461152b8288888888886117d4565b50505050505050565b60006014600036905010158015611550575061154f336108f2565b5b1561156457601436033560601c9050611568565b3390505b90565b505050505050565b6115928473ffffffffffffffffffffffffffffffffffffffff166119bb565b15611752578373ffffffffffffffffffffffffffffffffffffffff1663bc197c8187878686866040518663ffffffff1660e01b81526004016115d8959493929190612c15565b602060405180830381600087803b1580156115f257600080fd5b505af192505050801561162357506040513d601f19601f820116820180604052508101906116209190612c92565b60015b6116c95761162f612ccc565b806308c379a0141561168c5750611644612cee565b8061164f575061168e565b806040517f08c379a00000000000000000000000000000000000000000000000000000000081526004016116839190611cd7565b60405180910390fd5b505b6040517f08c379a00000000000000000000000000000000000000000000000000000000081526004016116c090612df6565b60405180910390fd5b63bc197c8160e01b7bffffffffffffffffffffffffffffffffffffffffffffffffffffffff1916817bffffffffffffffffffffffffffffffffffffffffffffffffffffffff191614611750576040517f08c379a000000000000000000000000000000000000000000000000000000000815260040161174790612e88565b60405180910390fd5b505b505050505050565b60606000600167ffffffffffffffff81111561177957611778611d2b565b5b6040519080825280602002602001820160405280156117a75781602001602082028036833780820191505090505b50905082816000815181106117bf576117be6126f7565b5b60200260200101818152505080915050919050565b6117f38473ffffffffffffffffffffffffffffffffffffffff166119bb565b156119b3578373ffffffffffffffffffffffffffffffffffffffff1663f23a6e6187878686866040518663ffffffff1660e01b8152600401611839959493929190612ea8565b602060405180830381600087803b15801561185357600080fd5b505af192505050801561188457506040513d601f19601f820116820180604052508101906118819190612c92565b60015b61192a57611890612ccc565b806308c379a014156118ed57506118a5612cee565b806118b057506118ef565b806040517f08c379a00000000000000000000000000000000000000000000000000000000081526004016118e49190611cd7565b60405180910390fd5b505b6040517f08c379a000000000000000000000000000000000000000000000000000000000815260040161192190612df6565b60405180910390fd5b63f23a6e6160e01b7bffffffffffffffffffffffffffffffffffffffffffffffffffffffff1916817bffffffffffffffffffffffffffffffffffffffffffffffffffffffff1916146119b1576040517f08c379a00000000000000000000000000000000000000000000000000000000081526004016119a890612e88565b60405180910390fd5b505b505050505050565b600080823b905060008111915050919050565b8280546119da906125a1565b90600052602060002090601f0160209004810192826119fc5760008555611a43565b82601f10611a1557805160ff1916838001178555611a43565b82800160010185558215611a43579182015b82811115611a42578251825591602001919060010190611a27565b5b509050611a509190611a54565b5090565b5b80821115611a6d576000816000905550600101611a55565b5090565b6000604051905090565b600080fd5b600080fd5b600073ffffffffffffffffffffffffffffffffffffffff82169050919050565b6000611ab082611a85565b9050919050565b611ac081611aa5565b8114611acb57600080fd5b50565b600081359050611add81611ab7565b92915050565b6000819050919050565b611af681611ae3565b8114611b0157600080fd5b50565b600081359050611b1381611aed565b92915050565b60008060408385031215611b3057611b2f611a7b565b5b6000611b3e85828601611ace565b9250506020611b4f85828601611b04565b9150509250929050565b611b6281611ae3565b82525050565b6000602082019050611b7d6000830184611b59565b92915050565b60007fffffffff0000000000000000000000000000000000000000000000000000000082169050919050565b611bb881611b83565b8114611bc357600080fd5b50565b600081359050611bd581611baf565b92915050565b600060208284031215611bf157611bf0611a7b565b5b6000611bff84828501611bc6565b91505092915050565b60008115159050919050565b611c1d81611c08565b82525050565b6000602082019050611c386000830184611c14565b92915050565b600081519050919050565b600082825260208201905092915050565b60005b83811015611c78578082015181840152602081019050611c5d565b83811115611c87576000848401525b50505050565b6000601f19601f8301169050919050565b6000611ca982611c3e565b611cb38185611c49565b9350611cc3818560208601611c5a565b611ccc81611c8d565b840191505092915050565b60006020820190508181036000830152611cf18184611c9e565b905092915050565b600060208284031215611d0f57611d0e611a7b565b5b6000611d1d84828501611b04565b91505092915050565b600080fd5b7f4e487b7100000000000000000000000000000000000000000000000000000000600052604160045260246000fd5b611d6382611c8d565b810181811067ffffffffffffffff82111715611d8257611d81611d2b565b5b80604052505050565b6000611d95611a71565b9050611da18282611d5a565b919050565b600067ffffffffffffffff821115611dc157611dc0611d2b565b5b602082029050602081019050919050565b600080fd5b6000611dea611de584611da6565b611d8b565b90508083825260208201905060208402830185811115611e0d57611e0c611dd2565b5b835b81811015611e365780611e228882611b04565b845260208401935050602081019050611e0f565b5050509392505050565b600082601f830112611e5557611e54611d26565b5b8135611e65848260208601611dd7565b91505092915050565b600080fd5b600067ffffffffffffffff821115611e8e57611e8d611d2b565b5b611e9782611c8d565b9050602081019050919050565b82818337600083830152505050565b6000611ec6611ec184611e73565b611d8b565b905082815260208101848484011115611ee257611ee1611e6e565b5b611eed848285611ea4565b509392505050565b600082601f830112611f0a57611f09611d26565b5b8135611f1a848260208601611eb3565b91505092915050565b600080600080600060a08688031215611f3f57611f3e611a7b565b5b6000611f4d88828901611ace565b9550506020611f5e88828901611ace565b945050604086013567ffffffffffffffff811115611f7f57611f7e611a80565b5b611f8b88828901611e40565b935050606086013567ffffffffffffffff811115611fac57611fab611a80565b5b611fb888828901611e40565b925050608086013567ffffffffffffffff811115611fd957611fd8611a80565b5b611fe588828901611ef5565b9150509295509295909350565b600067ffffffffffffffff82111561200d5761200c611d2b565b5b602082029050602081019050919050565b600061203161202c84611ff2565b611d8b565b9050808382526020820190506020840283018581111561205457612053611dd2565b5b835b8181101561207d57806120698882611ace565b845260208401935050602081019050612056565b5050509392505050565b600082601f83011261209c5761209b611d26565b5b81356120ac84826020860161201e565b91505092915050565b600080604083850312156120cc576120cb611a7b565b5b600083013567ffffffffffffffff8111156120ea576120e9611a80565b5b6120f685828601612087565b925050602083013567ffffffffffffffff81111561211757612116611a80565b5b61212385828601611e40565b9150509250929050565b600081519050919050565b600082825260208201905092915050565b6000819050602082019050919050565b61216281611ae3565b82525050565b60006121748383612159565b60208301905092915050565b6000602082019050919050565b60006121988261212d565b6121a28185612138565b93506121ad83612149565b8060005b838110156121de5781516121c58882612168565b97506121d083612180565b9250506001810190506121b1565b5085935050505092915050565b60006020820190508181036000830152612205818461218d565b905092915050565b60006020828403121561222357612222611a7b565b5b600061223184828501611ace565b91505092915050565b61224381611aa5565b82525050565b600060208201905061225e600083018461223a565b92915050565b600061226f82611a85565b9050919050565b61227f81612264565b82525050565b600060208201905061229a6000830184612276565b92915050565b6122a981611c08565b81146122b457600080fd5b50565b6000813590506122c6816122a0565b92915050565b600080604083850312156122e3576122e2611a7b565b5b60006122f185828601611ace565b9250506020612302858286016122b7565b9150509250929050565b600067ffffffffffffffff82111561232757612326611d2b565b5b61233082611c8d565b9050602081019050919050565b600061235061234b8461230c565b611d8b565b90508281526020810184848401111561236c5761236b611e6e565b5b612377848285611ea4565b509392505050565b600082601f83011261239457612393611d26565b5b81356123a484826020860161233d565b91505092915050565b600080604083850312156123c4576123c3611a7b565b5b600083013567ffffffffffffffff8111156123e2576123e1611a80565b5b6123ee8582860161237f565b92505060206123ff85828601611b04565b9150509250929050565b600080604083850312156124205761241f611a7b565b5b600061242e85828601611ace565b925050602061243f85828601611ace565b9150509250929050565b600080600080600060a0868803121561246557612464611a7b565b5b600061247388828901611ace565b955050602061248488828901611ace565b945050604061249588828901611b04565b93505060606124a688828901611b04565b925050608086013567ffffffffffffffff8111156124c7576124c6611a80565b5b6124d388828901611ef5565b9150509295509295909350565b7f455243313135353a2062616c616e636520717565727920666f7220746865207a60008201527f65726f2061646472657373000000000000000000000000000000000000000000602082015250565b600061253c602b83611c49565b9150612547826124e0565b604082019050919050565b6000602082019050818103600083015261256b8161252f565b9050919050565b7f4e487b7100000000000000000000000000000000000000000000000000000000600052602260045260246000fd5b600060028204905060018216806125b957607f821691505b602082108114156125cd576125cc612572565b5b50919050565b7f455243313135353a207472616e736665722063616c6c6572206973206e6f742060008201527f6f776e6572206e6f7220617070726f7665640000000000000000000000000000602082015250565b600061262f603283611c49565b915061263a826125d3565b604082019050919050565b6000602082019050818103600083015261265e81612622565b9050919050565b7f455243313135353a206163636f756e747320616e6420696473206c656e67746860008201527f206d69736d617463680000000000000000000000000000000000000000000000602082015250565b60006126c1602983611c49565b91506126cc82612665565b604082019050919050565b600060208201905081810360008301526126f0816126b4565b9050919050565b7f4e487b7100000000000000000000000000000000000000000000000000000000600052603260045260246000fd5b7f4e487b7100000000000000000000000000000000000000000000000000000000600052601160045260246000fd5b600061276082611ae3565b91507fffffffffffffffffffffffffffffffffffffffffffffffffffffffffffffffff82141561279357612792612726565b5b600182019050919050565b7f455243313135353a2073657474696e6720617070726f76616c2073746174757360008201527f20666f722073656c660000000000000000000000000000000000000000000000602082015250565b60006127fa602983611c49565b91506128058261279e565b604082019050919050565b60006020820190508181036000830152612829816127ed565b9050919050565b7f455243313135353a2063616c6c6572206973206e6f74206f776e6572206e6f7260008201527f20617070726f7665640000000000000000000000000000000000000000000000602082015250565b600061288c602983611c49565b915061289782612830565b604082019050919050565b600060208201905081810360008301526128bb8161287f565b9050919050565b7f455243313135353a2069647320616e6420616d6f756e7473206c656e6774682060008201527f6d69736d61746368000000000000000000000000000000000000000000000000602082015250565b600061291e602883611c49565b9150612929826128c2565b604082019050919050565b6000602082019050818103600083015261294d81612911565b9050919050565b7f455243313135353a207472616e7366657220746f20746865207a65726f20616460008201527f6472657373000000000000000000000000000000000000000000000000000000602082015250565b60006129b0602583611c49565b91506129bb82612954565b604082019050919050565b600060208201905081810360008301526129df816129a3565b9050919050565b7f455243313135353a20696e73756666696369656e742062616c616e636520666f60008201527f72207472616e7366657200000000000000000000000000000000000000000000602082015250565b6000612a42602a83611c49565b9150612a4d826129e6565b604082019050919050565b60006020820190508181036000830152612a7181612a35565b9050919050565b6000612a8382611ae3565b9150612a8e83611ae3565b9250827fffffffffffffffffffffffffffffffffffffffffffffffffffffffffffffffff03821115612ac357612ac2612726565b5b828201905092915050565b60006040820190508181036000830152612ae8818561218d565b90508181036020830152612afc818461218d565b90509392505050565b7f455243313135353a206d696e7420746f20746865207a65726f2061646472657360008201527f7300000000000000000000000000000000000000000000000000000000000000602082015250565b6000612b61602183611c49565b9150612b6c82612b05565b604082019050919050565b60006020820190508181036000830152612b9081612b54565b9050919050565b6000604082019050612bac6000830185611b59565b612bb96020830184611b59565b9392505050565b600081519050919050565b600082825260208201905092915050565b6000612be782612bc0565b612bf18185612bcb565b9350612c01818560208601611c5a565b612c0a81611c8d565b840191505092915050565b600060a082019050612c2a600083018861223a565b612c37602083018761223a565b8181036040830152612c49818661218d565b90508181036060830152612c5d818561218d565b90508181036080830152612c718184612bdc565b90509695505050505050565b600081519050612c8c81611baf565b92915050565b600060208284031215612ca857612ca7611a7b565b5b6000612cb684828501612c7d565b91505092915050565b60008160e01c9050919050565b600060033d1115612ceb5760046000803e612ce8600051612cbf565b90505b90565b600060443d1015612cfe57612d81565b612d06611a71565b60043d036004823e80513d602482011167ffffffffffffffff82111715612d2e575050612d81565b808201805167ffffffffffffffff811115612d4c5750505050612d81565b80602083010160043d038501811115612d69575050505050612d81565b612d7882602001850186611d5a565b82955050505050505b90565b7f455243313135353a207472616e7366657220746f206e6f6e204552433131353560008201527f526563656976657220696d706c656d656e746572000000000000000000000000602082015250565b6000612de0603483611c49565b9150612deb82612d84565b604082019050919050565b60006020820190508181036000830152612e0f81612dd3565b9050919050565b7f455243313135353a204552433131353552656365697665722072656a6563746560008201527f6420746f6b656e73000000000000000000000000000000000000000000000000602082015250565b6000612e72602883611c49565b9150612e7d82612e16565b604082019050919050565b60006020820190508181036000830152612ea181612e65565b9050919050565b600060a082019050612ebd600083018861223a565b612eca602083018761223a565b612ed76040830186611b59565b612ee46060830185611b59565b8181036080830152612ef68184612bdc565b9050969550505050505056fea2646970667358221220240a6994342e1f561f399e2e7431054abfaf24090459f2a7061efc3129a9a16a64736f6c63430008090033",
  "immutableReferences": {},
  "source": "// SPDX-License-Identifier: GPL-3.0\r\npragma solidity ^0.8.7;\r\nimport '@openzeppelin/contracts/token/ERC1155/ERC1155.sol';\r\nimport '@openzeppelin/contracts/access/Ownable.sol';\r\nimport '@openzeppelin/contracts/utils/Counters.sol';\r\nimport \"@openzeppelin/contracts/utils/math/SafeMath.sol\";\r\nimport \"@opengsn/contracts/src/BaseRelayRecipient.sol\";\r\nimport './EIP712MetaTransaction.sol';\r\n\r\ncontract NFT is ERC1155, BaseRelayRecipient{\r\n    \r\n    using Counters for Counters.Counter;\r\n    Counters.Counter private _tokenId;\r\n    address payable public owner;\r\n\r\n     // Contract name\r\n    string public name;\r\n    address constant public biconomyTruster = 0x84a0856b038eaAd1cC7E297cF34A7e72685A8693;\r\n\r\nfunction _msgSender() internal view override(Context, BaseRelayRecipient)\r\n      returns (address sender) {\r\n      sender = BaseRelayRecipient._msgSender();\r\n  }\r\n\r\n  function _msgData() internal view override(Context, BaseRelayRecipient)\r\n      returns (bytes memory) {\r\n      return BaseRelayRecipient._msgData();\r\n  }\r\n    \r\n    //defining\r\n    event MintToken(address _address, uint256 _tokenId);\r\n    struct Stock {\r\n        address _nftOwner;\r\n        uint256 _nftId;\r\n        string _nftUri;\r\n    }\r\n    \r\n    mapping( uint256 => Stock) StockCollection;\r\n    \r\n    //constructor\r\n     constructor() public ERC1155('') {\r\n        owner = payable(msg.sender);\r\n        _setTrustedForwarder(biconomyTruster);\r\n    }\r\n\r\n    function versionRecipient() external view override returns (string memory) {\r\n        return \"1\";\r\n    }\r\n\r\n    \r\n    // check the ether balance of the smart contract\r\n    function getBalance() view public returns(uint256 amount){\r\n        return address(this).balance;\r\n    }\r\n    \r\n    // return the uri based on the token_id\r\n    function uri(uint256 tokenId) public view override returns (string memory) {\r\n        return StockCollection[tokenId]._nftUri;\r\n    }\r\n\r\n    \r\n    // mint the nft token\r\n    function createProduct(string memory metadataURI, uint256 _amount) public payable returns (uint256){\r\n        _tokenId.increment();\r\n        uint256 _newTokenId = _tokenId.current();\r\n        uint256 amount = _amount;\r\n        //address openSeaProvider = _msgSender();\r\n        _mint(_msgSender(),_newTokenId, amount, \"\");\r\n        StockCollection[_newTokenId] = Stock(msg.sender, _newTokenId, metadataURI);\r\n        return _newTokenId;\r\n\r\n        }\r\n}\r\n",
  "sourcePath": "C:\\Users\\Administrator\\Desktop\\Physics\\Solidity\\web3_interact\\nfthack-2022\\truffle\\contracts\\NFT.sol",
  "compiler": {
    "name": "solc",
    "version": "0.8.9+commit.e5eed63a.Emscripten.clang"
  },
  "schemaVersion": "3.4.3",
  "updatedAt": "2022-01-15T18:20:56.464Z",
  "networkType": "ethereum",
  "devdoc": {
    "kind": "dev",
    "methods": {
      "balanceOf(address,uint256)": {
        "details": "See {IERC1155-balanceOf}. Requirements: - `account` cannot be the zero address."
      },
      "balanceOfBatch(address[],uint256[])": {
        "details": "See {IERC1155-balanceOfBatch}. Requirements: - `accounts` and `ids` must have the same length."
      },
      "isApprovedForAll(address,address)": {
        "details": "See {IERC1155-isApprovedForAll}."
      },
      "safeBatchTransferFrom(address,address,uint256[],uint256[],bytes)": {
        "details": "See {IERC1155-safeBatchTransferFrom}."
      },
      "safeTransferFrom(address,address,uint256,uint256,bytes)": {
        "details": "See {IERC1155-safeTransferFrom}."
      },
      "setApprovalForAll(address,bool)": {
        "details": "See {IERC1155-setApprovalForAll}."
      },
      "supportsInterface(bytes4)": {
        "details": "See {IERC165-supportsInterface}."
      }
    },
    "version": 1
  },
  "userdoc": {
    "kind": "user",
    "methods": {
      "isTrustedForwarder(address)": {
        "notice": "return if the forwarder is trusted to forward relayed transactions to us. the forwarder is required to verify the sender's signature, and verify the call is not a replay."
      }
    },
    "version": 1
  }
}